:100000000C9434000C9449000C9449000C94490061
:100010000C9449000C9449000C9449000C9449003C
:100020000C9449000C9449000C9449000C9449002C
:100030000C9449000C9449000C9449000C9449001C
:100040000C9449000C9449000C9449000C9449000C
:100050000C9449000C9449000C9449000C944900FC
:100060000C9449000C94490011241FBECFEFD8E036
:10007000DEBFCDBF11E0A0E0B1E0EAE4F7E002C0EE
:1000800005900D92A233B107D9F70E9489010C9413
:10009000A3030C94000085B1886085B985E08A953A
:1000A000F1F7000085B1877F85B987EC90E0019773
:1000B000F1F700C0000008959BB1937C9BB983FFCA
:1000C00003C09BB194609BB982FF03C09BB1986051
:1000D0009BB981FF03C09BB190619BB980FF03C0B6
:1000E0008BB180628BB90E944B000895CF93C82FCB
:1000F000613021F485B1806185B903C085B18F7EFF
:1001000085B98C2F82958F700E945C008C2F8F7028
:100110000E945C00CF910895CF93C82F60E00E94A9
:100120007600C150C23030F48FE39FE10197F1F7C0
:1001300000C00000CF91089561E00E94760008950C
:10014000882311F090E401C090E0862F8F70890F12
:1001500080680E948C000895CF93DF93EC0103C068
:1001600021960E949C0088818111FACFDF91CF9166
:10017000089581E00E948C00089584B1806184B963
:1001800084B1886084B98AB18C638AB92FEF89EF12
:1001900090E0215080409040E1F700C0000085B120
:1001A0008F7E85B985B1877F85B983E00E945C0029
:1001B0008FE19EE40197F1F700C0000083E00E9408
:1001C0005C0087E592E00197F1F700C0000083E052
:1001D0000E945C0087E592E00197F1F700C0000003
:1001E00082E00E945C0087E592E00197F1F700C091
:1001F000000088E20E948C0088E00E948C0081E070
:100200000E948C0086E00E948C008CE00E948C0092
:100210000895CF93DF93EC018A30910568F09C013B
:10022000ADECBCEC0E9494039695879596958795C6
:10023000969587950E9409019E01ADECBCEC0E9449
:1002400094039695879596958795969587959C01A5
:10025000220F331F880F991F880F991F880F991F2E
:10026000820F931F9E01281B390BC901805D0E94DC
:100270009C00DF91CF9108958F929F92AF92BF9291
:10028000CF92DF92EF92FF92CF93DF934B015C010D
:10029000D42F0E946A026B017C01CB010E940901EC
:1002A0008EE20E949C00B60180E090E00E949902DC
:1002B0009B01AC01C501B4010E94FD01C0E01CC05E
:1002C00020E030E040E251E40E9427034B015C0152
:1002D0000E946A026B017C0180E38C0D0E949C00ED
:1002E000B60180E090E00E9499029B01AC01C5013B
:1002F000B4010E94FD01CF5FCD1710F3DF91CF91C4
:10030000FF90EF90DF90CF90BF90AF909F908F9035
:1003100008950E94BD0060E080E00E94A00080E09F
:1003200091E00E94AC0060E081E00E94A0008AE0C1
:1003300091E00E94AC002FEF83ED90E321508040CC
:100340009040E1F700C000000E94B90082ED94E007
:100350000E94090144E062E779EF89E791E40E9495
:100360003C0160E080E00E94A00085E191E00E94F5
:10037000AC0060E081E00E94A00082ED94E00E9469
:1003800009012FEF83ED90E3215080409040E1F789
:1003900000C000000E94B9002FEF83ED90E32150D0
:1003A00080409040E1F700C0000060E080E00E94E3
:1003B000A00084E291E00E94AC0060E081E00E9435
:1003C000A00044E062E779EF89E791E40E943C01F4
:1003D0002FEF83ED90E3215080409040E1F700C083
:1003E00000000E94B9002FEF83ED90E32150804080
:1003F0009040E1F700C00000B4CF5058BB27AA27B7
:100400000E9415020C94ED020E94DF0238F00E9457
:10041000E60220F039F49F3F19F426F40C94DC0234
:100420000EF4E095E7FB0C94D602E92F0E94FE0241
:1004300058F3BA17620773078407950720F079F419
:10044000A6F50C9420030EF4E0950B2EBA2FA02DE8
:100450000B01B90190010C01CA01A0011124FF2771
:10046000591B99F0593F50F4503E68F11A16F0406C
:10047000A22F232F342F4427585FF3CF469537956B
:100480002795A795F0405395C9F77EF41F16BA0B30
:10049000620B730B840BBAF09150A1F0FF0FBB1FDE
:1004A000661F771F881FC2F70EC0BA0F621F731F27
:1004B000841F48F4879577956795B795F7959E3F84
:1004C00008F0B0CF9395880F08F09927EE0F979515
:1004D000879508950E94060388F09F5798F0B92FDA
:1004E0009927B751B0F0E1F0660F771F881F991F69
:1004F0001AF0BA95C9F714C0B13091F00E942003E8
:10050000B1E008950C942003672F782F8827B85FF7
:1005100039F0B93FCCF3869577956795B395D9F7C0
:100520003EF490958095709561957F4F8F4F9F4FCA
:100530000895E89409C097FB3EF4909580957095D6
:1005400061957F4F8F4F9F4F9923A9F0F92F96E91F
:10055000BB279395F695879577956795B795F11194
:10056000F8CFFAF4BB0F11F460FF1BC06F5F7F4F31
:100570008F4F9F4F16C0882311F096E911C0772343
:1005800021F09EE8872F762F05C0662371F096E84C
:10059000862F70E060E02AF09A95660F771F881F1B
:1005A000DAF7880F9695879597F9089597F99F67D9
:1005B00080E870E060E008959FEF80EC08950024EB
:1005C0000A941616170618060906089500240A94B8
:1005D00012161306140605060895092E0394000C3E
:1005E00011F4882352F0BB0F40F4BF2B11F460FFCD
:1005F00004C06F5F7F4F8F4F9F4F089557FD9058F6
:10060000440F551F59F05F3F71F04795880F97FBD6
:10061000991F61F09F3F79F0879508951216130690
:100620001406551FF2CF4695F1DF08C016161706BF
:100630001806991FF1CF86957105610508940895F4
:10064000E894BB2766277727CB0197F908950E9486
:100650003A030C94ED020E94DF0238F00E94E60299
:1006600020F0952311F00C94D6020C94DC02112496
:100670000C9421030E94FE0270F3959FC1F3950F25
:1006800050E0551F629FF001729FBB27F00DB11D16
:10069000639FAA27F00DB11DAA1F649F6627B00DA6
:1006A000A11D661F829F2227B00DA11D621F739F8F
:1006B000B00DA11D621F839FA00D611D221F749F9D
:1006C0003327A00D611D231F849F600D211D822FE4
:1006D000762F6A2F11249F5750409AF0F1F088230B
:1006E0004AF0EE0FFF1FBB1F661F771F881F915038
:1006F0005040A9F79E3F510580F00C94D6020C940F
:1007000021035F3FE4F3983ED4F386957795679590
:10071000B795F795E7959F5FC1F7FE2B880F911D61
:100720009695879597F90895A29FB001B39FC00150
:10073000A39F700D811D1124911DB29F700D811D0D
:0A0740001124911D0895F894FFCFD5
:10074A0048656C6C6F204C434400497420776F7283
:10075A006B73212000494E5445474552204E554D52
:10076A0042455200464C4F4154204E554D42455247
:02077A0000007D
:00000001FF
