:100000000C9434000C943E000C943E000C943E0082
:100010000C943E000C943E000C943E000C943E0068
:100020000C943E000C943E000C943E000C943E0058
:100030000C943E000C943E000C943E000C943E0048
:100040000C943E000C943E000C943E000C943E0038
:100050000C943E000C943E000C943E000C943E0028
:100060000C943E000C943E0011241FBECFEFD8E04C
:10007000DEBFCDBF0E9461000C946D000C940000A7
:1000800016BC84B5826084BD89EF87BD85B5836069
:1000900085BD85B3826085BB0895CF93DF93EC0166
:1000A0000E94400006C0A99BFECF85B3826085BB3D
:1000B000E9019E0121503109CD2BA9F7DF91CF91A4
:1000C000089584B1806284B995B180E2892785B9A9
:0E00D00088E893E10E944D00F7CFF894FFCF2F
:00000001FF
