:100000000C9434000C9449000C9449000C94490061
:100010000C9449000C9449000C9449000C9449003C
:100020000C9449000C9449000C9449000C9449002C
:100030000C9449000C9449000C9449000C9449001C
:100040000C9449000C9449000C9449000C9449000C
:100050000C9449000C9449000C9449000C944900FC
:100060000C9449000C94490011241FBECFEFD8E036
:10007000DEBFCDBF11E0A0E0B1E0E6E2F1E002C0FA
:1000800005900D92AE30B107D9F70E9457000C943D
:1000900091000C9400001092C50087E68093C40084
:1000A00088E08093C10086E08093C2000895CF93DA
:1000B000DF93CDB7DEB72E970FB6F894DEBF0FBE35
:1000C000CDBF0E944B008091C00085FFFCCF81E432
:1000D0008093C6008EE0E0E0F1E0DE011196019031
:1000E0000D928A95E1F720E030E008C08091C000D1
:1000F00085FFFCCF9093C6002F5F3F4FE1E0F0E01B
:10010000EC0FFD1FE20FF31F90819111EFCF2FEF46
:1001100083ED90E3215080409040E1F700C0000063
:06012000D2CFF894FFCFDE
:0E0126000A48454C4C4F20574F524C440A009B
:00000001FF
