:100000000C9434000C943E000C943E000C943E0082
:100010000C943E000C943E000C943E000C943E0068
:100020000C943E000C943E000C943E000C943E0058
:100030000C943E000C943E000C943E000C943E0048
:100040000C943E000C943E000C943E000C943E0038
:100050000C943E000C943E000C943E000C943E0028
:100060000C943E000C943E0011241FBECFEFD8E04C
:10007000DEBFCDBF0E945A000C9464000C940000B7
:1000800040E050E0BA010EC016BC14BC85B58160DA
:1000900085BD85B3816085BBA89BFECF4F5F5F4F59
:1000A0006F4F7F4F4C368CED580782E06807710523
:1000B00058F3089584B1806284B995B180E28927AC
:0C00C00085B90E944000F9CFF894FFCFF2
:00000001FF
