S02200004D4F544F525F44454C41595F46554E435F504152414D455445522E7372656318
S11300000C9434000C943E000C943E000C943E007E
S11300100C943E000C943E000C943E000C943E0064
S11300200C943E000C943E000C943E000C943E0054
S11300300C943E000C943E000C943E000C943E0044
S11300400C943E000C943E000C943E000C943E0034
S11300500C943E000C943E000C943E000C943E0024
S11300600C943E000C943E0011241FBECFEFD8E048
S1130070DEBFCDBF0E947C000C9493000C94000062
S113008025B1206225B925B12F7E25B907C08FE996
S11300909FE00197F1F700C00000C9019C012150C5
S11300A03109892BA1F7089525B12F7E25B925B1F2
S11300B02F7D25B907C08FE99FE00197F1F700C0B4
S11300C00000C9019C0121503109892BA1F7089531
S11300D025B1206125B925B12F7D25B907C08FE948
S11300E09FE00197F1F700C00000C9019C01215075
S11300F03109892BA1F7089584B1806284B984B150
S1130100806184B988E59BE10E94400080ED97E01E
S11301100E94540088E59BE10E94680080ED97E00E
S10D01200E945400EFCFF894FFCFC3
S9030000FC
