:100000000C9434000C9446000C9446000C9446006A
:100010000C9446000C9446000C9446000C94460048
:100020000C9446000C9446000C9446000C94460038
:100030000C9446000C9446000C9448000C94460026
:100040000C9446000C9446000C9446000C94460018
:100050000C9446000C9446000C9446000C94460008
:100060000C9446000C94460011241FBECFEFD8E03C
:10007000DEBFCDBF21E0A0E0B1E001C01D92A23003
:10008000B207E1F70E946E000C947F000C94000010
:100090001F920F920FB60F9211248F939F9380910E
:1000A000000190910101019690930101809300015C
:1000B00080910001909101018D37910540F095B13B
:1000C00080E2892785B910920101109200019F9169
:1000D0008F910F900FBE0F901F90189584B1806282
:1000E00084B989EF87BD82E084BD85B5856085BD13
:1000F000EEE6F0E08081826080837894FFCFF89410
:02010000FFCF2F
:00000001FF
