S01400004D4F44554C41525F4750494F2E737265636E
S11300000C9434000C943E000C943E000C943E007E
S11300100C943E000C943E000C943E000C943E0064
S11300200C943E000C943E000C943E000C943E0054
S11300300C943E000C943E000C943E000C943E0044
S11300400C943E000C943E000C943E000C943E0034
S11300500C943E000C943E000C943E000C943E0024
S11300600C943E000C943E0011241FBECFEFD8E048
S1130070DEBFCDBF0E9465000C9470000C9400009C
S113008016BC84B5826084BD89EF87BD85B5836065
S113009085BD85B3826085BB0895CF93DF93EC0162
S11300A00E94400006C0A99BFECF85B3826085BB39
S11300B0E9019E0121503109CD2BA9F7DF91CF91A0
S11300C0089584B18E6384B908950E94610095B146
S11300D08EE3892785B980ED97E00E944D00F7CF24
S10700E0F894FFCFBE
S9030000FC
