S023000045585445524E414C5F494E54455252555054305F46414C4C494E472E73726563E6
S11300000C9434000C9440000C943E000C943E007C
S11300100C943E000C943E000C943E000C943E0064
S11300200C943E000C943E000C943E000C943E0054
S11300300C943E000C943E000C943E000C943E0044
S11300400C943E000C943E000C943E000C943E0034
S11300500C943E000C943E000C943E000C943E0024
S11300600C943E000C943E0011241FBECFEFD8E048
S1130070DEBFCDBF0E9460000C9480000C94000091
S11300801F920F920FB60F9211242F933F938F93C9
S11300909F9395B180E2892785B92AEA36EE86E9ED
S11300A091E02150304080409040D9F700009F916A
S11300B08F913F912F910F900FBE0F901F90189525
S11300C084B1806384B98AB18B7F8AB98BB184602F
S11300D08BB98DB381608DBBE9E6F0E080818260ED
S11300E08083789495B180E1892785B92FEF87EAD9
S11300F091E6215080409040E1F700C00000F2CF2B
S1070100F894FFCF9D
S9030000FC
